{
  "_format": "hh-sol-artifact-1",
  "contractName": "Transaction",
  "sourceName": "contracts/Transaction.sol",
  "abi": [
    {
      "anonymous": false,
      "inputs": [
        {
          "indexed": false,
          "internalType": "address",
          "name": "from",
          "type": "address"
        },
        {
          "indexed": false,
          "internalType": "address",
          "name": "receiver",
          "type": "address"
        },
        {
          "indexed": false,
          "internalType": "uint256",
          "name": "amount",
          "type": "uint256"
        },
        {
          "indexed": false,
          "internalType": "uint256",
          "name": "timestamp",
          "type": "uint256"
        },
        {
          "indexed": false,
          "internalType": "string",
          "name": "message",
          "type": "string"
        }
      ],
      "name": "TransferEthereum",
      "type": "event"
    },
    {
      "inputs": [
        {
          "internalType": "address payable",
          "name": "receiver",
          "type": "address"
        },
        {
          "internalType": "uint256",
          "name": "amount",
          "type": "uint256"
        },
        {
          "internalType": "string",
          "name": "message",
          "type": "string"
        }
      ],
      "name": "addToBlockChain",
      "outputs": [],
      "stateMutability": "nonpayable",
      "type": "function"
    }
  ],
  "bytecode": "0x608060405234801561001057600080fd5b50610699806100206000396000f3fe608060405234801561001057600080fd5b506004361061002b5760003560e01c8063d5594fb814610030575b600080fd5b61004a60048036038101906100459190610304565b61004c565b005b60006040518060a001604052803373ffffffffffffffffffffffffffffffffffffffff1681526020018573ffffffffffffffffffffffffffffffffffffffff16815260200184815260200142815260200183815250908060018154018082558091505060019003906000526020600020906005020160009091909190915060008201518160000160006101000a81548173ffffffffffffffffffffffffffffffffffffffff021916908373ffffffffffffffffffffffffffffffffffffffff16021790555060208201518160010160006101000a81548173ffffffffffffffffffffffffffffffffffffffff021916908373ffffffffffffffffffffffffffffffffffffffff160217905550604082015181600201556060820151816003015560808201518160040190805190602001906101889291906101cf565b5050507f1117d437d4c6b40226227cfe88fdaff77598235af731cded2bf7af6f93dc7fc033848442856040516101c29594939291906103d1565b60405180910390a1505050565b8280546101db90610563565b90600052602060002090601f0160209004810192826101fd5760008555610244565b82601f1061021657805160ff1916838001178555610244565b82800160010185558215610244579182015b82811115610243578251825591602001919060010190610228565b5b5090506102519190610255565b5090565b5b8082111561026e576000816000905550600101610256565b5090565b600061028561028084610450565b61042b565b90508281526020810184848401111561029d57600080fd5b6102a8848285610521565b509392505050565b6000813590506102bf81610635565b92915050565b600082601f8301126102d657600080fd5b81356102e6848260208601610272565b91505092915050565b6000813590506102fe8161064c565b92915050565b60008060006060848603121561031957600080fd5b6000610327868287016102b0565b9350506020610338868287016102ef565b925050604084013567ffffffffffffffff81111561035557600080fd5b610361868287016102c5565b9150509250925092565b610374816104eb565b82525050565b6103838161049d565b82525050565b600061039482610481565b61039e818561048c565b93506103ae818560208601610530565b6103b781610624565b840191505092915050565b6103cb816104e1565b82525050565b600060a0820190506103e6600083018861037a565b6103f3602083018761036b565b61040060408301866103c2565b61040d60608301856103c2565b818103608083015261041f8184610389565b90509695505050505050565b6000610435610446565b90506104418282610595565b919050565b6000604051905090565b600067ffffffffffffffff82111561046b5761046a6105f5565b5b61047482610624565b9050602081019050919050565b600081519050919050565b600082825260208201905092915050565b60006104a8826104c1565b9050919050565b60006104ba826104c1565b9050919050565b600073ffffffffffffffffffffffffffffffffffffffff82169050919050565b6000819050919050565b60006104f6826104fd565b9050919050565b60006105088261050f565b9050919050565b600061051a826104c1565b9050919050565b82818337600083830152505050565b60005b8381101561054e578082015181840152602081019050610533565b8381111561055d576000848401525b50505050565b6000600282049050600182168061057b57607f821691505b6020821081141561058f5761058e6105c6565b5b50919050565b61059e82610624565b810181811067ffffffffffffffff821117156105bd576105bc6105f5565b5b80604052505050565b7f4e487b7100000000000000000000000000000000000000000000000000000000600052602260045260246000fd5b7f4e487b7100000000000000000000000000000000000000000000000000000000600052604160045260246000fd5b6000601f19601f8301169050919050565b61063e816104af565b811461064957600080fd5b50565b610655816104e1565b811461066057600080fd5b5056fea2646970667358221220cbb5bbaf20c7bb619aac0b0b9a01dab02d324807a2260c61193c1308c7c2573864736f6c63430008040033",
  "linkReferences": {},
  "deployedLinkReferences": {}
}